{
  "contractName": "COIN",
  "abi": [
    {
      "constant": true,
      "inputs": [],
      "name": "balance",
      "outputs": [
        {
          "internalType": "uint256",
          "name": "",
          "type": "uint256"
        }
      ],
      "payable": false,
      "stateMutability": "view",
      "type": "function"
    },
    {
      "constant": true,
      "inputs": [],
      "name": "message",
      "outputs": [
        {
          "internalType": "string",
          "name": "",
          "type": "string"
        }
      ],
      "payable": false,
      "stateMutability": "view",
      "type": "function"
    },
    {
      "constant": true,
      "inputs": [],
      "name": "minBet",
      "outputs": [
        {
          "internalType": "uint256",
          "name": "",
          "type": "uint256"
        }
      ],
      "payable": false,
      "stateMutability": "view",
      "type": "function"
    },
    {
      "constant": true,
      "inputs": [],
      "name": "owner",
      "outputs": [
        {
          "internalType": "address",
          "name": "",
          "type": "address"
        }
      ],
      "payable": false,
      "stateMutability": "view",
      "type": "function"
    },
    {
      "constant": false,
      "inputs": [
        {
          "internalType": "uint256",
          "name": "minimum",
          "type": "uint256"
        }
      ],
      "name": "minimumBet",
      "outputs": [],
      "payable": false,
      "stateMutability": "nonpayable",
      "type": "function"
    },
    {
      "constant": false,
      "inputs": [
        {
          "internalType": "uint256",
          "name": "funds",
          "type": "uint256"
        }
      ],
      "name": "contractFunds",
      "outputs": [],
      "payable": true,
      "stateMutability": "payable",
      "type": "function"
    },
    {
      "constant": false,
      "inputs": [
        {
          "internalType": "uint256",
          "name": "amount",
          "type": "uint256"
        }
      ],
      "name": "setBet",
      "outputs": [],
      "payable": false,
      "stateMutability": "nonpayable",
      "type": "function"
    },
    {
      "constant": false,
      "inputs": [],
      "name": "takeBet",
      "outputs": [],
      "payable": true,
      "stateMutability": "payable",
      "type": "function"
    },
    {
      "constant": true,
      "inputs": [],
      "name": "random",
      "outputs": [
        {
          "internalType": "uint256",
          "name": "",
          "type": "uint256"
        }
      ],
      "payable": false,
      "stateMutability": "view",
      "type": "function"
    },
    {
      "constant": false,
      "inputs": [
        {
          "internalType": "uint256",
          "name": "withdraw",
          "type": "uint256"
        }
      ],
      "name": "withdrawFunds",
      "outputs": [],
      "payable": false,
      "stateMutability": "nonpayable",
      "type": "function"
    }
  ],
  "bytecode": "0x6080604052604051806020016040528060008152506003908051906020019061002992919061006f565b50336000806101000a81548173ffffffffffffffffffffffffffffffffffffffff021916908373ffffffffffffffffffffffffffffffffffffffff160217905550610114565b828054600181600116156101000203166002900490600052602060002090601f016020900481019282601f106100b057805160ff19168380011785556100de565b828001600101855582156100de579182015b828111156100dd5782518255916020019190600101906100c2565b5b5090506100eb91906100ef565b5090565b61011191905b8082111561010d5760008160009055506001016100f5565b5090565b90565b610a6f806101236000396000f3fe6080604052600436106100915760003560e01c80639619367d116100595780639619367d14610198578063b69ef8a8146101c3578063e21f37ce146101ee578063e8399cc61461027e578063edac4db5146102b957610091565b806303b5d49414610096578063155dd5ee146100a05780633f08fb8d146100db5780635ec01e4d146101165780638da5cb5b14610141575b600080fd5b61009e6102e7565b005b3480156100ac57600080fd5b506100d9600480360360208110156100c357600080fd5b81019080803590602001909291905050506104f2565b005b3480156100e757600080fd5b50610114600480360360208110156100fe57600080fd5b81019080803590602001909291905050506105b4565b005b34801561012257600080fd5b5061012b610617565b6040518082815260200191505060405180910390f35b34801561014d57600080fd5b50610156610629565b604051808273ffffffffffffffffffffffffffffffffffffffff1673ffffffffffffffffffffffffffffffffffffffff16815260200191505060405180910390f35b3480156101a457600080fd5b506101ad61064e565b6040518082815260200191505060405180910390f35b3480156101cf57600080fd5b506101d8610654565b6040518082815260200191505060405180910390f35b3480156101fa57600080fd5b5061020361065a565b6040518080602001828103825283818151815260200191508051906020019080838360005b83811015610243578082015181840152602081019050610228565b50505050905090810190601f1680156102705780820380516001836020036101000a031916815260200191505b509250505060405180910390f35b34801561028a57600080fd5b506102b7600480360360208110156102a157600080fd5b81019080803590602001909291905050506106f8565b005b6102e5600480360360208110156102cf57600080fd5b81019080803590602001909291905050506108b3565b005b670de0b6b3a7640000600460003373ffffffffffffffffffffffffffffffffffffffff1673ffffffffffffffffffffffffffffffffffffffff16815260200190815260200160002060000154028034101561034157600080fd5b34600160008282540192505081905550600161035b610617565b14156104a2576002670de0b6b3a7640000600460003373ffffffffffffffffffffffffffffffffffffffff1673ffffffffffffffffffffffffffffffffffffffff168152602001908152602001600020600001540202600154036001819055503373ffffffffffffffffffffffffffffffffffffffff166108fc6002670de0b6b3a7640000600460003373ffffffffffffffffffffffffffffffffffffffff1673ffffffffffffffffffffffffffffffffffffffff1681526020019081526020016000206000015402029081150290604051600060405180830381858888f19350505050158015610450573d6000803e3d6000fd5b506040518060400160405280600381526020017f57494e00000000000000000000000000000000000000000000000000000000008152506003908051906020019061049c929190610982565b506104ef565b6040518060400160405280600481526020017f4c4f534500000000000000000000000000000000000000000000000000000000815250600390805190602001906104ed929190610982565b505b50565b6000809054906101000a900473ffffffffffffffffffffffffffffffffffffffff1673ffffffffffffffffffffffffffffffffffffffff163373ffffffffffffffffffffffffffffffffffffffff161461054b57600080fd5b670de0b6b3a76400008102600154036001819055503373ffffffffffffffffffffffffffffffffffffffff166108fc670de0b6b3a764000083029081150290604051600060405180830381858888f193505050501580156105b0573d6000803e3d6000fd5b5050565b6000809054906101000a900473ffffffffffffffffffffffffffffffffffffffff1673ffffffffffffffffffffffffffffffffffffffff163373ffffffffffffffffffffffffffffffffffffffff161461060d57600080fd5b8060028190555050565b60006002428161062357fe5b06905090565b6000809054906101000a900473ffffffffffffffffffffffffffffffffffffffff1681565b60025481565b60015481565b60038054600181600116156101000203166002900480601f0160208091040260200160405190810160405280929190818152602001828054600181600116156101000203166002900480156106f05780601f106106c5576101008083540402835291602001916106f0565b820191906000526020600020905b8154815290600101906020018083116106d357829003601f168201915b505050505081565b610700610a02565b818160000181815250506107138161092c565b670de0b6b3a764000060025402670de0b6b3a7640000600460003373ffffffffffffffffffffffffffffffffffffffff1673ffffffffffffffffffffffffffffffffffffffff168152602001908152602001600020600001540210156107e1576040517f08c379a00000000000000000000000000000000000000000000000000000000081526004018080602001828103825260158152602001807f42657420756e646572206d696e696d756d20626574000000000000000000000081525060200191505060405180910390fd5b6002600154816107ed57fe5b04670de0b6b3a7640000600460003373ffffffffffffffffffffffffffffffffffffffff1673ffffffffffffffffffffffffffffffffffffffff168152602001908152602001600020600001540211156108af576040517f08c379a00000000000000000000000000000000000000000000000000000000081526004018080602001828103825260178152602001807f426574206f76657220636f6e74726163742066756e647300000000000000000081525060200191505060405180910390fd5b5050565b6000809054906101000a900473ffffffffffffffffffffffffffffffffffffffff1673ffffffffffffffffffffffffffffffffffffffff163373ffffffffffffffffffffffffffffffffffffffff161461090c57600080fd5b8034101561091957600080fd5b3460016000828254019250508190555050565b600033905081600460008373ffffffffffffffffffffffffffffffffffffffff1673ffffffffffffffffffffffffffffffffffffffff168152602001908152602001600020600082015181600001559050505050565b828054600181600116156101000203166002900490600052602060002090601f016020900481019282601f106109c357805160ff19168380011785556109f1565b828001600101855582156109f1579182015b828111156109f05782518255916020019190600101906109d5565b5b5090506109fe9190610a15565b5090565b6040518060200160405280600081525090565b610a3791905b80821115610a33576000816000905550600101610a1b565b5090565b9056fea265627a7a72315820e44aaf4cef858e77be881002eba7dc6d6cd6a7aba69c259f8f8a7bd5359d80e664736f6c63430005100032",
  "source": "import \"./ownable.sol\";\r\npragma solidity 0.5.16;\r\n\r\n contract COIN is Ownable{\r\n\r\n    struct player {\r\n      uint amount;\r\n    }\r\n\r\n    uint public balance;\r\n    uint public minBet;\r\n\r\n    string public message = \"\";\r\n\r\n    modifier costs(uint cost){\r\n        require(msg.value >= cost);\r\n        _;\r\n    }\r\n\r\n    mapping (address => player) private players;\r\n    // address[] private playersArr;\r\n\r\n     function minimumBet(uint minimum) public onlyOwner {\r\n       minBet = minimum;\r\n    }\r\n\r\n    function contractFunds(uint funds) public payable onlyOwner{\r\n       require(msg.value >= funds);\r\n       balance += msg.value;\r\n       //maxBet = balance/2;\r\n    }\r\n\r\n// link amount player want ot pay to his address\r\n    function setBet(uint amount) public {\r\n        player memory newPlayer;\r\n        newPlayer.amount = amount;\r\n\r\n        insertPlayer(newPlayer);\r\n        // playersArr.push(msg.sender);\r\n        require((players[msg.sender].amount)*1000000000000000000 >= minBet*1000000000000000000, \"Bet under minimum bet\");\r\n        require((players[msg.sender].amount)*1000000000000000000 <= balance/2, \"Bet over contract funds\");\r\n        }\r\n\r\n// send betted money to the contract\r\n     function takeBet() public payable costs( (players[msg.sender].amount)*1000000000000000000 ){\r\n\r\n      //require(msg.value >= 2 ether);\r\n      balance += msg.value;\r\n\r\n\r\n      if(random() == 1){\r\n        balance = balance - (players[msg.sender].amount)*1000000000000000000*2;\r\n       msg.sender.transfer( (players[msg.sender].amount)*1000000000000000000*2 );\r\n\r\n       message = \"WIN\";\r\n         }\r\n        else{\r\n\r\n        message =\"LOSE\";\r\n\r\n        }\r\n\r\n        //maxBet = balance/2;\r\n        }\r\n\r\n\r\n// coin win or lose\r\n    function random() public view returns(uint){\r\n    return now % 2;\r\n    }\r\n\r\n\r\n\r\n\r\n// only owner can withdraw money\r\n    function withdrawFunds(uint withdraw) public onlyOwner {\r\n\r\n       balance = balance - withdraw*1000000000000000000;\r\n       msg.sender.transfer(withdraw*1000000000000000000);\r\n       //maxBet = balance/2;\r\n   }\r\n\r\n  function insertPlayer(player memory newPlayer) private {\r\n        address creator = msg.sender; // variabile creator contiene address del giocatore\r\n        players[creator] = newPlayer;  // collego player al suo address\r\n    }\r\n\r\n\r\n\r\n}\r\n",
  "sourcePath": "C:\\Users\\enrico\\Desktop\\coding\\truffle\\COIN\\contracts\\COIN.sol",
  "compiler": {
    "name": "solc",
    "version": "0.5.16+commit.9c3226ce.Emscripten.clang"
  },
  "schemaVersion": "3.0.23",
  "updatedAt": "2020-10-15T17:46:11.489Z",
  "networkType": "ethereum",
  "devdoc": {
    "methods": {}
  },
  "userdoc": {
    "methods": {}
  }
}