{
  "contractName": "coin3",
  "abi": [
    {
      "inputs": [],
      "payable": true,
      "stateMutability": "payable",
      "type": "constructor"
    },
    {
      "anonymous": false,
      "inputs": [
        {
          "indexed": false,
          "internalType": "uint256",
          "name": "bet",
          "type": "uint256"
        }
      ],
      "name": "betEvent",
      "type": "event"
    },
    {
      "constant": true,
      "inputs": [],
      "name": "TotGames",
      "outputs": [
        {
          "internalType": "uint256",
          "name": "",
          "type": "uint256"
        }
      ],
      "payable": false,
      "stateMutability": "view",
      "type": "function"
    },
    {
      "constant": true,
      "inputs": [],
      "name": "TotGamesWon",
      "outputs": [
        {
          "internalType": "uint256",
          "name": "",
          "type": "uint256"
        }
      ],
      "payable": false,
      "stateMutability": "view",
      "type": "function"
    },
    {
      "constant": true,
      "inputs": [],
      "name": "TotMoneyBetted",
      "outputs": [
        {
          "internalType": "uint256",
          "name": "",
          "type": "uint256"
        }
      ],
      "payable": false,
      "stateMutability": "view",
      "type": "function"
    },
    {
      "constant": true,
      "inputs": [],
      "name": "TotMoneyWon",
      "outputs": [
        {
          "internalType": "uint256",
          "name": "",
          "type": "uint256"
        }
      ],
      "payable": false,
      "stateMutability": "view",
      "type": "function"
    },
    {
      "constant": true,
      "inputs": [],
      "name": "TotUniquePlayers",
      "outputs": [
        {
          "internalType": "uint256",
          "name": "",
          "type": "uint256"
        }
      ],
      "payable": false,
      "stateMutability": "view",
      "type": "function"
    },
    {
      "constant": true,
      "inputs": [],
      "name": "balance",
      "outputs": [
        {
          "internalType": "uint256",
          "name": "",
          "type": "uint256"
        }
      ],
      "payable": false,
      "stateMutability": "view",
      "type": "function"
    },
    {
      "constant": true,
      "inputs": [],
      "name": "hide",
      "outputs": [
        {
          "internalType": "uint256",
          "name": "",
          "type": "uint256"
        }
      ],
      "payable": false,
      "stateMutability": "view",
      "type": "function"
    },
    {
      "constant": true,
      "inputs": [],
      "name": "minBet",
      "outputs": [
        {
          "internalType": "uint256",
          "name": "",
          "type": "uint256"
        }
      ],
      "payable": false,
      "stateMutability": "view",
      "type": "function"
    },
    {
      "constant": true,
      "inputs": [],
      "name": "owner",
      "outputs": [
        {
          "internalType": "address",
          "name": "",
          "type": "address"
        }
      ],
      "payable": false,
      "stateMutability": "view",
      "type": "function"
    },
    {
      "constant": false,
      "inputs": [],
      "name": "checkOwner",
      "outputs": [
        {
          "internalType": "uint256",
          "name": "",
          "type": "uint256"
        }
      ],
      "payable": false,
      "stateMutability": "nonpayable",
      "type": "function"
    },
    {
      "constant": false,
      "inputs": [
        {
          "internalType": "uint256",
          "name": "minimum",
          "type": "uint256"
        }
      ],
      "name": "minimumBet",
      "outputs": [
        {
          "internalType": "uint256",
          "name": "",
          "type": "uint256"
        }
      ],
      "payable": false,
      "stateMutability": "nonpayable",
      "type": "function"
    },
    {
      "constant": false,
      "inputs": [
        {
          "internalType": "uint256",
          "name": "amount",
          "type": "uint256"
        },
        {
          "internalType": "uint256",
          "name": "bet",
          "type": "uint256"
        }
      ],
      "name": "setBet",
      "outputs": [],
      "payable": true,
      "stateMutability": "payable",
      "type": "function"
    },
    {
      "constant": true,
      "inputs": [],
      "name": "random",
      "outputs": [
        {
          "internalType": "uint256",
          "name": "",
          "type": "uint256"
        }
      ],
      "payable": false,
      "stateMutability": "view",
      "type": "function"
    },
    {
      "constant": true,
      "inputs": [],
      "name": "getResult",
      "outputs": [
        {
          "internalType": "uint256",
          "name": "amount",
          "type": "uint256"
        },
        {
          "internalType": "uint256",
          "name": "bet",
          "type": "uint256"
        },
        {
          "internalType": "string",
          "name": "message",
          "type": "string"
        },
        {
          "internalType": "uint256",
          "name": "result",
          "type": "uint256"
        },
        {
          "internalType": "uint256",
          "name": "playerBalance",
          "type": "uint256"
        },
        {
          "internalType": "uint256",
          "name": "games",
          "type": "uint256"
        },
        {
          "internalType": "uint256",
          "name": "moneyBetted",
          "type": "uint256"
        },
        {
          "internalType": "uint256",
          "name": "gamesWon",
          "type": "uint256"
        },
        {
          "internalType": "uint256",
          "name": "moneyWon",
          "type": "uint256"
        }
      ],
      "payable": false,
      "stateMutability": "view",
      "type": "function"
    },
    {
      "constant": false,
      "inputs": [
        {
          "internalType": "uint256",
          "name": "deposit",
          "type": "uint256"
        }
      ],
      "name": "depositFunds",
      "outputs": [],
      "payable": true,
      "stateMutability": "payable",
      "type": "function"
    },
    {
      "constant": false,
      "inputs": [
        {
          "internalType": "uint256",
          "name": "withdraw",
          "type": "uint256"
        }
      ],
      "name": "withdrawFunds",
      "outputs": [],
      "payable": false,
      "stateMutability": "nonpayable",
      "type": "function"
    },
    {
      "constant": false,
      "inputs": [
        {
          "internalType": "uint256",
          "name": "withdraw",
          "type": "uint256"
        }
      ],
      "name": "withdrawFundsPlayer",
      "outputs": [],
      "payable": false,
      "stateMutability": "nonpayable",
      "type": "function"
    },
    {
      "constant": true,
      "inputs": [
        {
          "internalType": "address",
          "name": "infoaddress",
          "type": "address"
        }
      ],
      "name": "getStatistics",
      "outputs": [
        {
          "internalType": "uint256",
          "name": "games",
          "type": "uint256"
        },
        {
          "internalType": "uint256",
          "name": "moneyBetted",
          "type": "uint256"
        },
        {
          "internalType": "uint256",
          "name": "gamesWon",
          "type": "uint256"
        },
        {
          "internalType": "uint256",
          "name": "moneyWon",
          "type": "uint256"
        }
      ],
      "payable": false,
      "stateMutability": "view",
      "type": "function"
    },
    {
      "constant": true,
      "inputs": [
        {
          "internalType": "uint256",
          "name": "number",
          "type": "uint256"
        }
      ],
      "name": "getAddress",
      "outputs": [
        {
          "internalType": "address",
          "name": "infoaddress",
          "type": "address"
        }
      ],
      "payable": false,
      "stateMutability": "view",
      "type": "function"
    }
  ],
  "bytecode": "0x6080604052336000806101000a81548173ffffffffffffffffffffffffffffffffffffffff021916908373ffffffffffffffffffffffffffffffffffffffff160217905550677ce66c50e284000034101561005957600080fd5b34600160008282540192505081905550600a3390806001815401808255809150509060018203906000526020600020016000909192909190916101000a81548173ffffffffffffffffffffffffffffffffffffffff021916908373ffffffffffffffffffffffffffffffffffffffff16021790555050600b3390806001815401808255809150509060018203906000526020600020016000909192909190916101000a81548173ffffffffffffffffffffffffffffffffffffffff021916908373ffffffffffffffffffffffffffffffffffffffff16021790555050611db2806101446000396000f3fe6080604052600436106101145760003560e01c8063780301af116100a0578063b69ef8a811610064578063b69ef8a814610442578063b93f9b0a1461046d578063ba790c3c146104e8578063cdbce03d14610513578063de2927891461053e57610114565b8063780301af1461032f5780638da5cb5b1461035a5780639619367d146103b15780639b4fec61146103dc578063b62a76251461041757610114565b8063155dd5ee116100e7578063155dd5ee146102145780633b76594d1461024f5780633f08fb8d1461027d57806354965b85146102cc5780635ec01e4d1461030457610114565b80630e3f4876146101195780630ec547951461019357806310189795146101be57806311a3288b146101e9575b600080fd5b34801561012557600080fd5b506101686004803603602081101561013c57600080fd5b81019080803573ffffffffffffffffffffffffffffffffffffffff169060200190929190505050610606565b6040518085815260200184815260200183815260200182815260200194505050505060405180910390f35b34801561019f57600080fd5b506101a8610780565b6040518082815260200191505060405180910390f35b3480156101ca57600080fd5b506101d3610786565b6040518082815260200191505060405180910390f35b3480156101f557600080fd5b506101fe61078c565b6040518082815260200191505060405180910390f35b34801561022057600080fd5b5061024d6004803603602081101561023757600080fd5b8101908080359060200190929190505050610792565b005b61027b6004803603602081101561026557600080fd5b8101908080359060200190929190505050610854565b005b34801561028957600080fd5b506102b6600480360360208110156102a057600080fd5b81019080803590602001909291905050506108de565b6040518082815260200191505060405180910390f35b610302600480360360408110156102e257600080fd5b81019080803590602001909291908035906020019092919050505061094a565b005b34801561031057600080fd5b5061031961158d565b6040518082815260200191505060405180910390f35b34801561033b57600080fd5b5061034461159f565b6040518082815260200191505060405180910390f35b34801561036657600080fd5b5061036f6115a5565b604051808273ffffffffffffffffffffffffffffffffffffffff1673ffffffffffffffffffffffffffffffffffffffff16815260200191505060405180910390f35b3480156103bd57600080fd5b506103c66115ca565b6040518082815260200191505060405180910390f35b3480156103e857600080fd5b50610415600480360360208110156103ff57600080fd5b81019080803590602001909291905050506115d0565b005b34801561042357600080fd5b5061042c611707565b6040518082815260200191505060405180910390f35b34801561044e57600080fd5b5061045761170d565b6040518082815260200191505060405180910390f35b34801561047957600080fd5b506104a66004803603602081101561049057600080fd5b8101908080359060200190929190505050611713565b604051808273ffffffffffffffffffffffffffffffffffffffff1673ffffffffffffffffffffffffffffffffffffffff16815260200191505060405180910390f35b3480156104f457600080fd5b506104fd6117b0565b6040518082815260200191505060405180910390f35b34801561051f57600080fd5b506105286117b6565b6040518082815260200191505060405180910390f35b34801561054a57600080fd5b5061055361182b565b604051808a815260200189815260200180602001888152602001878152602001868152602001858152602001848152602001838152602001828103825289818151815260200191508051906020019080838360005b838110156105c35780820151818401526020810190506105a8565b50505050905090810190601f1680156105f05780820380516001836020036101000a031916815260200191505b509a505050505050505050505060405180910390f35b6000806000806000809054906101000a900473ffffffffffffffffffffffffffffffffffffffff1673ffffffffffffffffffffffffffffffffffffffff163373ffffffffffffffffffffffffffffffffffffffff161461066557600080fd5b600960008673ffffffffffffffffffffffffffffffffffffffff1673ffffffffffffffffffffffffffffffffffffffff16815260200190815260200160002060050154600960008773ffffffffffffffffffffffffffffffffffffffff1673ffffffffffffffffffffffffffffffffffffffff16815260200190815260200160002060060154600960008873ffffffffffffffffffffffffffffffffffffffff1673ffffffffffffffffffffffffffffffffffffffff16815260200190815260200160002060070154600960008973ffffffffffffffffffffffffffffffffffffffff1673ffffffffffffffffffffffffffffffffffffffff1681526020019081526020016000206008015493509350935093509193509193565b60035481565b60065481565b60075481565b6000809054906101000a900473ffffffffffffffffffffffffffffffffffffffff1673ffffffffffffffffffffffffffffffffffffffff163373ffffffffffffffffffffffffffffffffffffffff16146107eb57600080fd5b670de0b6b3a76400008102600154036001819055503373ffffffffffffffffffffffffffffffffffffffff166108fc670de0b6b3a764000083029081150290604051600060405180830381858888f19350505050158015610850573d6000803e3d6000fd5b5050565b6000809054906101000a900473ffffffffffffffffffffffffffffffffffffffff1673ffffffffffffffffffffffffffffffffffffffff163373ffffffffffffffffffffffffffffffffffffffff16146108ad57600080fd5b670de0b6b3a76400008102803410156108c557600080fd5b670de0b6b3a76400008202600154016001819055505050565b60008060009054906101000a900473ffffffffffffffffffffffffffffffffffffffff1673ffffffffffffffffffffffffffffffffffffffff163373ffffffffffffffffffffffffffffffffffffffff161461093957600080fd5b816002819055506002549050919050565b670de0b6b3a764000082028034101561096257600080fd5b60018214806109715750600082145b61097a57600080fd5b610982611c0c565b8381600001818152505082816020018181525050600960003373ffffffffffffffffffffffffffffffffffffffff1673ffffffffffffffffffffffffffffffffffffffff16815260200190815260200160002060040154816080018181525050600960003373ffffffffffffffffffffffffffffffffffffffff1673ffffffffffffffffffffffffffffffffffffffff168152602001908152602001600020600501548160a0018181525050600960003373ffffffffffffffffffffffffffffffffffffffff1673ffffffffffffffffffffffffffffffffffffffff168152602001908152602001600020600601548160c0018181525050600960003373ffffffffffffffffffffffffffffffffffffffff1673ffffffffffffffffffffffffffffffffffffffff168152602001908152602001600020600701548160e0018181525050600960003373ffffffffffffffffffffffffffffffffffffffff1673ffffffffffffffffffffffffffffffffffffffff1681526020019081526020016000206008015481610100018181525050600a3390806001815401808255809150509060018203906000526020600020016000909192909190916101000a81548173ffffffffffffffffffffffffffffffffffffffff021916908373ffffffffffffffffffffffffffffffffffffffff1602179055505060008090506000809050600091505b600b80549050821015610c1457600b8281548110610ba257fe5b9060005260206000200160009054906101000a900473ffffffffffffffffffffffffffffffffffffffff1673ffffffffffffffffffffffffffffffffffffffff163373ffffffffffffffffffffffffffffffffffffffff161415610c07576001810190505b8180600101925050610b88565b6001811015610c8457600b3390806001815401808255809150509060018203906000526020600020016000909192909190916101000a81548173ffffffffffffffffffffffffffffffffffffffff021916908373ffffffffffffffffffffffffffffffffffffffff160217905550505b610c8d83611b52565b670de0b6b3a764000060025402670de0b6b3a7640000600960003373ffffffffffffffffffffffffffffffffffffffff1673ffffffffffffffffffffffffffffffffffffffff16815260200190815260200160002060000154021015610d5b576040517f08c379a00000000000000000000000000000000000000000000000000000000081526004018080602001828103825260158152602001807f42657420756e646572206d696e696d756d20626574000000000000000000000081525060200191505060405180910390fd5b600260015481610d6757fe5b04670de0b6b3a7640000600960003373ffffffffffffffffffffffffffffffffffffffff1673ffffffffffffffffffffffffffffffffffffffff16815260200190815260200160002060000154021115610e29576040517f08c379a00000000000000000000000000000000000000000000000000000000081526004018080602001828103825260178152602001807f426574206f76657220636f6e74726163742066756e647300000000000000000081525060200191505060405180910390fd5b34600160008282540192505081905550600960003373ffffffffffffffffffffffffffffffffffffffff1673ffffffffffffffffffffffffffffffffffffffff16815260200190815260200160002060010154610e8461158d565b1415611263576002670de0b6b3a7640000600960003373ffffffffffffffffffffffffffffffffffffffff1673ffffffffffffffffffffffffffffffffffffffff168152602001908152602001600020600001540202600154036001819055506002670de0b6b3a7640000600960003373ffffffffffffffffffffffffffffffffffffffff1673ffffffffffffffffffffffffffffffffffffffff168152602001908152602001600020600001540202600960003373ffffffffffffffffffffffffffffffffffffffff1673ffffffffffffffffffffffffffffffffffffffff1681526020019081526020016000206004015401600960003373ffffffffffffffffffffffffffffffffffffffff1673ffffffffffffffffffffffffffffffffffffffff168152602001908152602001600020600401819055506040518060400160405280600381526020017f57494e0000000000000000000000000000000000000000000000000000000000815250600960003373ffffffffffffffffffffffffffffffffffffffff1673ffffffffffffffffffffffffffffffffffffffff1681526020019081526020016000206002019080519060200190611049929190611c58565b5061105261158d565b600960003373ffffffffffffffffffffffffffffffffffffffff1673ffffffffffffffffffffffffffffffffffffffff168152602001908152602001600020600301819055506001600960003373ffffffffffffffffffffffffffffffffffffffff1673ffffffffffffffffffffffffffffffffffffffff1681526020019081526020016000206007015401600960003373ffffffffffffffffffffffffffffffffffffffff1673ffffffffffffffffffffffffffffffffffffffff16815260200190815260200160002060070181905550670de0b6b3a7640000600960003373ffffffffffffffffffffffffffffffffffffffff1673ffffffffffffffffffffffffffffffffffffffff1681526020019081526020016000206000015402600960003373ffffffffffffffffffffffffffffffffffffffff1673ffffffffffffffffffffffffffffffffffffffff1681526020019081526020016000206008015401600960003373ffffffffffffffffffffffffffffffffffffffff1673ffffffffffffffffffffffffffffffffffffffff16815260200190815260200160002060080181905550600554600101600581905550600654670de0b6b3a7640000600960003373ffffffffffffffffffffffffffffffffffffffff1673ffffffffffffffffffffffffffffffffffffffff16815260200190815260200160002060000154020160068190555061133e565b6040518060400160405280600481526020017f4c4f534500000000000000000000000000000000000000000000000000000000815250600960003373ffffffffffffffffffffffffffffffffffffffff1673ffffffffffffffffffffffffffffffffffffffff16815260200190815260200160002060020190805190602001906112ee929190611c58565b506112f761158d565b600960003373ffffffffffffffffffffffffffffffffffffffff1673ffffffffffffffffffffffffffffffffffffffff168152602001908152602001600020600301819055505b6001600960003373ffffffffffffffffffffffffffffffffffffffff1673ffffffffffffffffffffffffffffffffffffffff1681526020019081526020016000206005015401600960003373ffffffffffffffffffffffffffffffffffffffff1673ffffffffffffffffffffffffffffffffffffffff16815260200190815260200160002060050181905550670de0b6b3a7640000600960003373ffffffffffffffffffffffffffffffffffffffff1673ffffffffffffffffffffffffffffffffffffffff1681526020019081526020016000206000015402600960003373ffffffffffffffffffffffffffffffffffffffff1673ffffffffffffffffffffffffffffffffffffffff1681526020019081526020016000206006015401600960003373ffffffffffffffffffffffffffffffffffffffff1673ffffffffffffffffffffffffffffffffffffffff168152602001908152602001600020600601819055506001600a8054905003600381905550600454600960003373ffffffffffffffffffffffffffffffffffffffff1673ffffffffffffffffffffffffffffffffffffffff16815260200190815260200160002060000154016004819055506001600b80549050036007819055507fd5f65d15eb38eb3f1dabb953b382b97c945ae727dd2123f0af6093ff0fc36b6a600960003373ffffffffffffffffffffffffffffffffffffffff1673ffffffffffffffffffffffffffffffffffffffff168152602001908152602001600020600301546040518082815260200191505060405180910390a1505050505050565b60006002428161159957fe5b06905090565b60055481565b6000809054906101000a900473ffffffffffffffffffffffffffffffffffffffff1681565b60025481565b600960003373ffffffffffffffffffffffffffffffffffffffff1673ffffffffffffffffffffffffffffffffffffffff16815260200190815260200160002060040154811061161e57600080fd5b670de0b6b3a76400008102600960003373ffffffffffffffffffffffffffffffffffffffff1673ffffffffffffffffffffffffffffffffffffffff1681526020019081526020016000206004015403600960003373ffffffffffffffffffffffffffffffffffffffff1673ffffffffffffffffffffffffffffffffffffffff168152602001908152602001600020600401819055503373ffffffffffffffffffffffffffffffffffffffff166108fc670de0b6b3a764000083029081150290604051600060405180830381858888f19350505050158015611703573d6000803e3d6000fd5b5050565b60085481565b60015481565b60008060009054906101000a900473ffffffffffffffffffffffffffffffffffffffff1673ffffffffffffffffffffffffffffffffffffffff163373ffffffffffffffffffffffffffffffffffffffff161461176e57600080fd5b600b828154811061177b57fe5b9060005260206000200160009054906101000a900473ffffffffffffffffffffffffffffffffffffffff169050809050919050565b60045481565b60008060009054906101000a900473ffffffffffffffffffffffffffffffffffffffff1673ffffffffffffffffffffffffffffffffffffffff163373ffffffffffffffffffffffffffffffffffffffff16141561181a576001600881905550611823565b60006008819055505b600854905090565b60008060606000806000806000806000339050600960008273ffffffffffffffffffffffffffffffffffffffff1673ffffffffffffffffffffffffffffffffffffffff16815260200190815260200160002060000154600960008373ffffffffffffffffffffffffffffffffffffffff1673ffffffffffffffffffffffffffffffffffffffff16815260200190815260200160002060010154600960008473ffffffffffffffffffffffffffffffffffffffff1673ffffffffffffffffffffffffffffffffffffffff168152602001908152602001600020600201600960008573ffffffffffffffffffffffffffffffffffffffff1673ffffffffffffffffffffffffffffffffffffffff16815260200190815260200160002060030154600960008673ffffffffffffffffffffffffffffffffffffffff1673ffffffffffffffffffffffffffffffffffffffff16815260200190815260200160002060040154600960008773ffffffffffffffffffffffffffffffffffffffff1673ffffffffffffffffffffffffffffffffffffffff16815260200190815260200160002060050154600960008873ffffffffffffffffffffffffffffffffffffffff1673ffffffffffffffffffffffffffffffffffffffff16815260200190815260200160002060060154600960008973ffffffffffffffffffffffffffffffffffffffff1673ffffffffffffffffffffffffffffffffffffffff16815260200190815260200160002060070154600960008a73ffffffffffffffffffffffffffffffffffffffff1673ffffffffffffffffffffffffffffffffffffffff16815260200190815260200160002060080154868054600181600116156101000203166002900480601f016020809104026020016040519081016040528092919081815260200182805460018160011615610100020316600290048015611b2d5780601f10611b0257610100808354040283529160200191611b2d565b820191906000526020600020905b815481529060010190602001808311611b1057829003601f168201915b5050505050965099509950995099509950995099509950995050909192939495969798565b600033905081600960008373ffffffffffffffffffffffffffffffffffffffff1673ffffffffffffffffffffffffffffffffffffffff16815260200190815260200160002060008201518160000155602082015181600101556040820151816002019080519060200190611bc7929190611cd8565b50606082015181600301556080820151816004015560a0820151816005015560c0820151816006015560e0820151816007015561010082015181600801559050505050565b6040518061012001604052806000815260200160008152602001606081526020016000815260200160008152602001600081526020016000815260200160008152602001600081525090565b828054600181600116156101000203166002900490600052602060002090601f016020900481019282601f10611c9957805160ff1916838001178555611cc7565b82800160010185558215611cc7579182015b82811115611cc6578251825591602001919060010190611cab565b5b509050611cd49190611d58565b5090565b828054600181600116156101000203166002900490600052602060002090601f016020900481019282601f10611d1957805160ff1916838001178555611d47565b82800160010185558215611d47579182015b82811115611d46578251825591602001919060010190611d2b565b5b509050611d549190611d58565b5090565b611d7a91905b80821115611d76576000816000905550600101611d5e565b5090565b9056fea265627a7a72315820519886ed21c90c433b2cb6c3607f704afe42d2592f33a38e86624e8c061110be64736f6c63430005100032",
  "source": "import \"./Ownable.sol\";\r\npragma solidity 0.5.16;\r\n\r\ncontract coin3 is Ownable{\r\n\r\n    struct player {\r\n      uint amount;\r\n      uint bet;\r\n      string message;                       // message after flip: WIN or LOSE\r\n      uint result;                                     // result of the coin flip return from Provable\r\n      uint playerBalance;\r\n      uint games;\r\n      uint moneyBetted;\r\n      uint gamesWon;\r\n      uint moneyWon;\r\n    }\r\n\r\n    uint public balance;\r\n    uint public minBet;\r\n\r\n    uint public TotGames;\r\n    uint public TotMoneyBetted;\r\n    uint public TotGamesWon;\r\n    uint public TotMoneyWon;\r\n    uint public TotUniquePlayers;\r\n\r\n    uint public hide;\r\n\r\n\r\nfunction checkOwner() public returns(uint){\r\n       if(msg.sender == owner){\r\n       hide = 1;\r\n       }\r\n       else {\r\n       hide = 0;\r\n       }\r\n\r\n       return hide;\r\n    }\r\n\r\n\r\n    modifier costs(uint cost){\r\n        require(msg.value >= cost);\r\n        _;\r\n    }\r\n\r\n    constructor() public payable{\r\n    require(msg.value >= 9*1000000000000000000);\r\n       balance += msg.value;\r\n       addresses.push(msg.sender);\r\n       addressesFilter.push(msg.sender);\r\n}\r\n\r\n\r\n\r\n\r\nfunction minimumBet(uint minimum) public onlyOwner returns(uint){\r\n       minBet = minimum;\r\n       return minBet;\r\n    }\r\n\r\n    mapping (address => player) private players;\r\n    // address[] private playersArr;\r\n\r\n    address[] private addresses;\r\n    address[] private addressesFilter;\r\n\r\n    event betEvent(uint bet);\r\n\r\n// link amount player want ot pay to his address\r\n    function setBet(uint amount, uint bet) public payable costs( (amount)*1000000000000000000 ){\r\n\r\n\r\n        require(bet == 1 || bet == 0);\r\n\r\n        player memory newPlayer;\r\n        newPlayer.amount = amount;\r\n        newPlayer.bet = bet;\r\n\r\n        // i dati che voglio non vengano perduti tra una bet e l'altra li devo salvare nel mapping\r\n\r\n        newPlayer.playerBalance = players[msg.sender].playerBalance;\r\n        newPlayer.games = players[msg.sender].games;\r\n        newPlayer.moneyBetted = players[msg.sender].moneyBetted;\r\n        newPlayer.gamesWon = players[msg.sender].gamesWon;\r\n        newPlayer.moneyWon = players[msg.sender].moneyWon;\r\n\r\n        addresses.push(msg.sender);\r\n\r\n\r\n\r\n        uint i = 0;\r\n        uint counter = 0;\r\n\r\n        for(i=0; i<addressesFilter.length; i++){\r\n\r\n            if(msg.sender == addressesFilter[i]){\r\n\r\n            counter = counter + 1;\r\n\r\n            }\r\n        }\r\n\r\n        if(counter < 1){\r\n\r\n            addressesFilter.push(msg.sender);\r\n            }\r\n\r\n\r\n\r\n\r\n\r\n\r\n\r\n\r\n        insertPlayer(newPlayer);\r\n        // playersArr.push(msg.sender);\r\n\r\n        require((players[msg.sender].amount)*1000000000000000000 >= minBet*1000000000000000000, \"Bet under minimum bet\");\r\n        require((players[msg.sender].amount)*1000000000000000000 <= balance/2, \"Bet over contract funds\");\r\n\r\n\r\n\r\n        balance += msg.value;\r\n\r\n\r\n\r\n      if(random() == (players[msg.sender].bet)){\r\n        balance = balance - (players[msg.sender].amount)*1000000000000000000*2;\r\n       players[msg.sender].playerBalance = players[msg.sender].playerBalance + (players[msg.sender].amount)*1000000000000000000*2;\r\n\r\n       players[msg.sender].message = \"WIN\";\r\n       players[msg.sender].result = random();\r\n\r\n       players[msg.sender].gamesWon = players[msg.sender].gamesWon + 1;\r\n       players[msg.sender].moneyWon = players[msg.sender].moneyWon + (players[msg.sender].amount)*1000000000000000000;\r\n\r\n       TotGamesWon = 1 + TotGamesWon;\r\n       TotMoneyWon = (players[msg.sender].amount)*1000000000000000000 + TotMoneyWon;\r\n\r\n        }\r\n\r\n        else{\r\n\r\n        players[msg.sender].message =\"LOSE\";\r\n        players[msg.sender].result = random();\r\n\r\n        }\r\n\r\n        players[msg.sender].games = players[msg.sender].games + 1;\r\n        players[msg.sender].moneyBetted = players[msg.sender].moneyBetted + (players[msg.sender].amount)*1000000000000000000;\r\n        //maxBet = balance/2;\r\n\r\n\r\n        TotGames = addresses.length -1;\r\n        TotMoneyBetted = players[msg.sender].amount + TotMoneyBetted;\r\n        TotUniquePlayers = addressesFilter.length -1;\r\n\r\n\r\n        emit betEvent(players[msg.sender].result);\r\n\r\n        }\r\n\r\n\r\n\r\n\r\n\r\n\r\n// coin win or lose\r\n    function random() public view returns(uint){\r\n    return now % 2;\r\n    }\r\n\r\n\r\nfunction getResult() public view returns(uint amount, uint bet, string memory message, uint result, uint playerBalance, uint games, uint moneyBetted, uint gamesWon, uint moneyWon){\r\n         address creator = msg.sender;\r\n\r\n         return (players[creator].amount, players[creator].bet, players[creator].message, players[creator].result, players[creator].playerBalance, players[creator].games, players[creator].moneyBetted, players[creator].gamesWon, players[creator].moneyWon );\r\n     }\r\n\r\n\r\nfunction depositFunds(uint deposit) public payable onlyOwner costs( deposit*1000000000000000000 ){\r\n\r\n    balance = balance + deposit*1000000000000000000;\r\n\r\n}\r\n\r\n\r\n\r\n// only owner can withdraw money\r\n    function withdrawFunds(uint withdraw) public onlyOwner {\r\n\r\n       balance = balance - withdraw*1000000000000000000;\r\n       msg.sender.transfer(withdraw*1000000000000000000);\r\n       //maxBet = balance/2;\r\n   }\r\n\r\n\r\n\r\n   function withdrawFundsPlayer(uint withdraw) public {\r\n   require(withdraw<players[msg.sender].playerBalance);\r\n\r\n   players[msg.sender].playerBalance = players[msg.sender].playerBalance - (withdraw*1000000000000000000);\r\n   msg.sender.transfer(withdraw*1000000000000000000);\r\n\r\n\r\n   }\r\n  function insertPlayer(player memory newPlayer) private {\r\n        address creator = msg.sender; // variabile creator contiene address del giocatore\r\n        players[creator] = newPlayer;  // collego player al suo address\r\n    }\r\n\r\n\r\n\r\nfunction getStatistics(address infoaddress) public view onlyOwner returns(uint games, uint moneyBetted, uint gamesWon, uint moneyWon){\r\n\r\n\r\n         return (players[infoaddress].games, players[infoaddress].moneyBetted, players[infoaddress].gamesWon, players[infoaddress].moneyWon );\r\n     }\r\n\r\nfunction getAddress(uint number) public view onlyOwner returns(address infoaddress){\r\n\r\n         infoaddress = addressesFilter[number];\r\n\r\n         return (infoaddress);\r\n     }\r\n\r\n\r\n\r\n\r\n}\r\n",
  "sourcePath": "C:\\Users\\enrico\\Desktop\\coding\\truffle\\coin3\\contracts\\coin3.sol",
  "compiler": {
    "name": "solc",
    "version": "0.5.16+commit.9c3226ce.Emscripten.clang"
  },
  "schemaVersion": "3.0.23",
  "updatedAt": "2021-02-09T10:15:59.412Z",
  "networkType": "ethereum",
  "devdoc": {
    "methods": {}
  },
  "userdoc": {
    "methods": {}
  }
}